{
  "contractName": "Lotto",
  "abi": [
    {
      "inputs": [
        {
          "internalType": "uint256",
          "name": "_amount",
          "type": "uint256"
        }
      ],
      "stateMutability": "nonpayable",
      "type": "constructor"
    },
    {
      "anonymous": false,
      "inputs": [
        {
          "indexed": false,
          "internalType": "uint256",
          "name": "applicationNumber",
          "type": "uint256"
        }
      ],
      "name": "ApplicationDone",
      "type": "event"
    },
    {
      "anonymous": false,
      "inputs": [
        {
          "indexed": false,
          "internalType": "address",
          "name": "winner",
          "type": "address"
        },
        {
          "indexed": false,
          "internalType": "uint256",
          "name": "ownerAmount",
          "type": "uint256"
        },
        {
          "indexed": false,
          "internalType": "uint256",
          "name": "jackpot",
          "type": "uint256"
        }
      ],
      "name": "LotteryRunFinished",
      "type": "event"
    },
    {
      "anonymous": false,
      "inputs": [
        {
          "indexed": true,
          "internalType": "address",
          "name": "previousOwner",
          "type": "address"
        },
        {
          "indexed": true,
          "internalType": "address",
          "name": "newOwner",
          "type": "address"
        }
      ],
      "name": "OwnershipTransferred",
      "type": "event"
    },
    {
      "anonymous": false,
      "inputs": [
        {
          "indexed": false,
          "internalType": "address",
          "name": "account",
          "type": "address"
        }
      ],
      "name": "Paused",
      "type": "event"
    },
    {
      "anonymous": false,
      "inputs": [
        {
          "indexed": false,
          "internalType": "address",
          "name": "account",
          "type": "address"
        }
      ],
      "name": "Unpaused",
      "type": "event"
    },
    {
      "inputs": [],
      "name": "amount",
      "outputs": [
        {
          "internalType": "uint256",
          "name": "",
          "type": "uint256"
        }
      ],
      "stateMutability": "view",
      "type": "function",
      "constant": true
    },
    {
      "inputs": [],
      "name": "currentLottery",
      "outputs": [
        {
          "internalType": "uint16",
          "name": "",
          "type": "uint16"
        }
      ],
      "stateMutability": "view",
      "type": "function",
      "constant": true
    },
    {
      "inputs": [
        {
          "internalType": "uint256",
          "name": "",
          "type": "uint256"
        }
      ],
      "name": "lotteries",
      "outputs": [
        {
          "internalType": "uint256",
          "name": "startBlock",
          "type": "uint256"
        },
        {
          "internalType": "uint256",
          "name": "endBlock",
          "type": "uint256"
        },
        {
          "internalType": "bytes32",
          "name": "blockHash",
          "type": "bytes32"
        },
        {
          "internalType": "address",
          "name": "winner",
          "type": "address"
        }
      ],
      "stateMutability": "view",
      "type": "function",
      "constant": true
    },
    {
      "inputs": [],
      "name": "owner",
      "outputs": [
        {
          "internalType": "address",
          "name": "",
          "type": "address"
        }
      ],
      "stateMutability": "view",
      "type": "function",
      "constant": true
    },
    {
      "inputs": [],
      "name": "ownerAddress",
      "outputs": [
        {
          "internalType": "address",
          "name": "",
          "type": "address"
        }
      ],
      "stateMutability": "view",
      "type": "function",
      "constant": true
    },
    {
      "inputs": [],
      "name": "ownerRatio",
      "outputs": [
        {
          "internalType": "uint16",
          "name": "",
          "type": "uint16"
        }
      ],
      "stateMutability": "view",
      "type": "function",
      "constant": true
    },
    {
      "inputs": [],
      "name": "paused",
      "outputs": [
        {
          "internalType": "bool",
          "name": "",
          "type": "bool"
        }
      ],
      "stateMutability": "view",
      "type": "function",
      "constant": true
    },
    {
      "inputs": [],
      "name": "renounceOwnership",
      "outputs": [],
      "stateMutability": "nonpayable",
      "type": "function"
    },
    {
      "inputs": [],
      "name": "totalOwnerAmount",
      "outputs": [
        {
          "internalType": "uint256",
          "name": "",
          "type": "uint256"
        }
      ],
      "stateMutability": "view",
      "type": "function",
      "constant": true
    },
    {
      "inputs": [],
      "name": "totalPlayedAmount",
      "outputs": [
        {
          "internalType": "uint256",
          "name": "",
          "type": "uint256"
        }
      ],
      "stateMutability": "view",
      "type": "function",
      "constant": true
    },
    {
      "inputs": [
        {
          "internalType": "address",
          "name": "newOwner",
          "type": "address"
        }
      ],
      "name": "transferOwnership",
      "outputs": [],
      "stateMutability": "nonpayable",
      "type": "function"
    },
    {
      "inputs": [],
      "name": "play",
      "outputs": [
        {
          "internalType": "uint256",
          "name": "",
          "type": "uint256"
        }
      ],
      "stateMutability": "payable",
      "type": "function",
      "payable": true
    },
    {
      "inputs": [],
      "name": "getCurrentCount",
      "outputs": [
        {
          "internalType": "uint256",
          "name": "",
          "type": "uint256"
        }
      ],
      "stateMutability": "view",
      "type": "function",
      "constant": true
    },
    {
      "inputs": [],
      "name": "getCurrentLottery",
      "outputs": [
        {
          "internalType": "uint256",
          "name": "endBlock",
          "type": "uint256"
        },
        {
          "internalType": "uint256",
          "name": "startBlock",
          "type": "uint256"
        },
        {
          "internalType": "bytes32",
          "name": "blockHash",
          "type": "bytes32"
        },
        {
          "internalType": "address",
          "name": "winner",
          "type": "address"
        },
        {
          "internalType": "uint256",
          "name": "participants",
          "type": "uint256"
        }
      ],
      "stateMutability": "view",
      "type": "function",
      "constant": true
    },
    {
      "inputs": [],
      "name": "initialise",
      "outputs": [],
      "stateMutability": "nonpayable",
      "type": "function"
    },
    {
      "inputs": [
        {
          "internalType": "uint16",
          "name": "newRatio",
          "type": "uint16"
        }
      ],
      "name": "setOwnerRatio",
      "outputs": [],
      "stateMutability": "nonpayable",
      "type": "function"
    },
    {
      "inputs": [
        {
          "internalType": "address",
          "name": "_ownerAddress",
          "type": "address"
        }
      ],
      "name": "setOwnerAddress",
      "outputs": [],
      "stateMutability": "nonpayable",
      "type": "function"
    },
    {
      "inputs": [],
      "name": "runLottery",
      "outputs": [
        {
          "internalType": "uint256",
          "name": "",
          "type": "uint256"
        },
        {
          "internalType": "address",
          "name": "",
          "type": "address"
        }
      ],
      "stateMutability": "nonpayable",
      "type": "function"
    }
  ],
  "bytecode": "0x60806040523480156200001157600080fd5b5060405162001d2138038062001d21833981810160405260208110156200003757600080fd5b810190808051906020019092919050505060006200005a620001ce60201b60201c565b9050806000806101000a81548173ffffffffffffffffffffffffffffffffffffffff021916908373ffffffffffffffffffffffffffffffffffffffff1602179055508073ffffffffffffffffffffffffffffffffffffffff16600073ffffffffffffffffffffffffffffffffffffffff167f8be0079c531659141344cd1fd0a4f28419497f9722a3daafe3b4186f6b6457e060405160405180910390a35060008060146101000a81548160ff0219169083151502179055506000811415620001305766038d7ea4c6800060018190555062000138565b806001819055505b62000148620001d660201b60201c565b62000158620002d360201b60201c565b620001686200051760201b60201c565b33600260006101000a81548173ffffffffffffffffffffffffffffffffffffffff021916908373ffffffffffffffffffffffffffffffffffffffff1602179055506001600560006101000a81548161ffff021916908361ffff1602179055505062000651565b600033905090565b620001e66200061260201b60201c565b156200025a576040517f08c379a00000000000000000000000000000000000000000000000000000000081526004018080602001828103825260108152602001807f5061757361626c653a207061757365640000000000000000000000000000000081525060200191505060405180910390fd5b6001600060146101000a81548160ff0219169083151502179055507f62e78cea01bee320cd4e420270b5ea74000d11b0c9f74754ebdbfc544b05a258620002a6620001ce60201b60201c565b604051808273ffffffffffffffffffffffffffffffffffffffff16815260200191505060405180910390a1565b620002e36200061260201b60201c565b62000356576040517f08c379a00000000000000000000000000000000000000000000000000000000081526004018080602001828103825260148152602001807f5061757361626c653a206e6f742070617573656400000000000000000000000081525060200191505060405180910390fd5b62000366620001ce60201b60201c565b73ffffffffffffffffffffffffffffffffffffffff166200038c6200062860201b60201c565b73ffffffffffffffffffffffffffffffffffffffff161462000416576040517f08c379a00000000000000000000000000000000000000000000000000000000081526004018080602001828103825260208152602001807f4f776e61626c653a2063616c6c6572206973206e6f7420746865206f776e657281525060200191505060405180910390fd5b600047146200042457600080fd5b6005600281819054906101000a900461ffff168092919060010191906101000a81548161ffff021916908361ffff160217905550504360066000600560029054906101000a900461ffff1661ffff1681526020019081526020016000206000018190555060066000600560029054906101000a900461ffff1661ffff168152602001908152602001600020600001544060066000600560029054906101000a900461ffff1661ffff168152602001908152602001600020600201819055506194e5430160066000600560029054906101000a900461ffff1661ffff16815260200190815260200160002060010181905550565b620005276200061260201b60201c565b6200059a576040517f08c379a00000000000000000000000000000000000000000000000000000000081526004018080602001828103825260148152602001807f5061757361626c653a206e6f742070617573656400000000000000000000000081525060200191505060405180910390fd5b60008060146101000a81548160ff0219169083151502179055507f5db9ee0a495bf2e6ff9c91a7834c1ba4fdd244a5e8aa4e537bd38aeae4b073aa620005e5620001ce60201b60201c565b604051808273ffffffffffffffffffffffffffffffffffffffff16815260200191505060405180910390a1565b60008060149054906101000a900460ff16905090565b60008060009054906101000a900473ffffffffffffffffffffffffffffffffffffffff16905090565b6116c080620006616000396000f3fe6080604052600436106101095760003560e01c806377e7a16e1161009557806399a757ab1161006457806399a757ab14610402578063aa8c217c14610441578063d5863e1d1461046c578063dd51babf14610497578063f2fde38b146104c257610109565b806377e7a16e146103375780638da5cb5b146103625780638f84aa09146103a357806393e84cd9146103e457610109565b80635674a3ed116100dc5780635674a3ed14610237578063592e6f591461027f5780635c975abb146102965780635f2ef3b0146102c3578063715018a61461032057610109565b80631398e0761461010e5780632bd56b0614610188578063331a6bf5146101b75780634a4e6a8b14610208575b600080fd5b34801561011a57600080fd5b506101476004803603602081101561013157600080fd5b8101908080359060200190929190505050610513565b604051808581526020018481526020018381526020018273ffffffffffffffffffffffffffffffffffffffff16815260200194505050505060405180910390f35b34801561019457600080fd5b5061019d610563565b604051808261ffff16815260200191505060405180910390f35b3480156101c357600080fd5b50610206600480360360208110156101da57600080fd5b81019080803573ffffffffffffffffffffffffffffffffffffffff169060200190929190505050610577565b005b34801561021457600080fd5b5061021d6106a4565b604051808261ffff16815260200191505060405180910390f35b34801561024357600080fd5b5061024c6106b8565b604051808381526020018273ffffffffffffffffffffffffffffffffffffffff1681526020019250505060405180910390f35b34801561028b57600080fd5b50610294610a14565b005b3480156102a257600080fd5b506102ab610c3d565b60405180821515815260200191505060405180910390f35b3480156102cf57600080fd5b506102d8610c53565b604051808681526020018581526020018481526020018373ffffffffffffffffffffffffffffffffffffffff1681526020018281526020019550505050505060405180910390f35b34801561032c57600080fd5b50610335610cd3565b005b34801561034357600080fd5b5061034c610e40565b6040518082815260200191505060405180910390f35b34801561036e57600080fd5b50610377610e46565b604051808273ffffffffffffffffffffffffffffffffffffffff16815260200191505060405180910390f35b3480156103af57600080fd5b506103b8610e6f565b604051808273ffffffffffffffffffffffffffffffffffffffff16815260200191505060405180910390f35b6103ec610e95565b6040518082815260200191505060405180910390f35b34801561040e57600080fd5b5061043f6004803603602081101561042557600080fd5b81019080803561ffff1690602001909291905050506110ed565b005b34801561044d57600080fd5b506104566111cd565b6040518082815260200191505060405180910390f35b34801561047857600080fd5b506104816111d3565b6040518082815260200191505060405180910390f35b3480156104a357600080fd5b506104ac6111d9565b6040518082815260200191505060405180910390f35b3480156104ce57600080fd5b50610511600480360360208110156104e557600080fd5b81019080803573ffffffffffffffffffffffffffffffffffffffff16906020019092919050505061120e565b005b60066020528060005260406000206000915090508060000154908060010154908060020154908060030160009054906101000a900473ffffffffffffffffffffffffffffffffffffffff16905084565b600560029054906101000a900461ffff1681565b61057f611400565b73ffffffffffffffffffffffffffffffffffffffff1661059d610e46565b73ffffffffffffffffffffffffffffffffffffffff1614610626576040517f08c379a00000000000000000000000000000000000000000000000000000000081526004018080602001828103825260208152602001807f4f776e61626c653a2063616c6c6572206973206e6f7420746865206f776e657281525060200191505060405180910390fd5b600073ffffffffffffffffffffffffffffffffffffffff168173ffffffffffffffffffffffffffffffffffffffff16141561066057600080fd5b80600260006101000a81548173ffffffffffffffffffffffffffffffffffffffff021916908373ffffffffffffffffffffffffffffffffffffffff16021790555050565b600560009054906101000a900461ffff1681565b6000806106c3611400565b73ffffffffffffffffffffffffffffffffffffffff166106e1610e46565b73ffffffffffffffffffffffffffffffffffffffff161461076a576040517f08c379a00000000000000000000000000000000000000000000000000000000081526004018080602001828103825260208152602001807f4f776e61626c653a2063616c6c6572206973206e6f7420746865206f776e657281525060200191505060405180910390fd5b600260066000600560029054906101000a900461ffff1661ffff1681526020019081526020016000206004018054905010156107a557600080fd5b6107ad611408565b60006064600560009054906101000a900461ffff1661ffff164702816107cf57fe5b0490506000600260009054906101000a900473ffffffffffffffffffffffffffffffffffffffff1690508073ffffffffffffffffffffffffffffffffffffffff166108fc839081150290604051600060405180830381858888f1935050505015801561083f573d6000803e3d6000fd5b5081600460008282540192505081905550600061085a6114f4565b9050600060066000600560029054906101000a900461ffff1661ffff168152602001908152602001600020600401828154811061089357fe5b9060005260206000200160000160009054906101000a900473ffffffffffffffffffffffffffffffffffffffff16905060008190506000479050600081111561091e578173ffffffffffffffffffffffffffffffffffffffff166108fc829081150290604051600060405180830381858888f1935050505015801561091c573d6000803e3d6000fd5b505b8260066000600560029054906101000a900461ffff1661ffff16815260200190815260200160002060030160006101000a81548173ffffffffffffffffffffffffffffffffffffffff021916908373ffffffffffffffffffffffffffffffffffffffff1602179055508060036000828254019250508190555061099f610a14565b6109a761157a565b7fcdb31f9ed4f3794a32f869d5df0daa0b02d32be29ef90061f398cf4d99d96dd2838783604051808473ffffffffffffffffffffffffffffffffffffffff168152602001838152602001828152602001935050505060405180910390a18383975097505050505050509091565b610a1c610c3d565b610a8e576040517f08c379a00000000000000000000000000000000000000000000000000000000081526004018080602001828103825260148152602001807f5061757361626c653a206e6f742070617573656400000000000000000000000081525060200191505060405180910390fd5b610a96611400565b73ffffffffffffffffffffffffffffffffffffffff16610ab4610e46565b73ffffffffffffffffffffffffffffffffffffffff1614610b3d576040517f08c379a00000000000000000000000000000000000000000000000000000000081526004018080602001828103825260208152602001807f4f776e61626c653a2063616c6c6572206973206e6f7420746865206f776e657281525060200191505060405180910390fd5b60004714610b4a57600080fd5b6005600281819054906101000a900461ffff168092919060010191906101000a81548161ffff021916908361ffff160217905550504360066000600560029054906101000a900461ffff1661ffff1681526020019081526020016000206000018190555060066000600560029054906101000a900461ffff1661ffff168152602001908152602001600020600001544060066000600560029054906101000a900461ffff1661ffff168152602001908152602001600020600201819055506194e5430160066000600560029054906101000a900461ffff1661ffff16815260200190815260200160002060010181905550565b60008060149054906101000a900460ff16905090565b60008060008060008060066000600560029054906101000a900461ffff1661ffff16815260200190815260200160002090508060010154816000015482600201548360030160009054906101000a900473ffffffffffffffffffffffffffffffffffffffff16846004018054905095509550955095509550509091929394565b610cdb611400565b73ffffffffffffffffffffffffffffffffffffffff16610cf9610e46565b73ffffffffffffffffffffffffffffffffffffffff1614610d82576040517f08c379a00000000000000000000000000000000000000000000000000000000081526004018080602001828103825260208152602001807f4f776e61626c653a2063616c6c6572206973206e6f7420746865206f776e657281525060200191505060405180910390fd5b600073ffffffffffffffffffffffffffffffffffffffff1660008054906101000a900473ffffffffffffffffffffffffffffffffffffffff1673ffffffffffffffffffffffffffffffffffffffff167f8be0079c531659141344cd1fd0a4f28419497f9722a3daafe3b4186f6b6457e060405160405180910390a360008060006101000a81548173ffffffffffffffffffffffffffffffffffffffff021916908373ffffffffffffffffffffffffffffffffffffffff160217905550565b60045481565b60008060009054906101000a900473ffffffffffffffffffffffffffffffffffffffff16905090565b600260009054906101000a900473ffffffffffffffffffffffffffffffffffffffff1681565b6000610e9f610c3d565b15610f12576040517f08c379a00000000000000000000000000000000000000000000000000000000081526004018080602001828103825260108152602001807f5061757361626c653a207061757365640000000000000000000000000000000081525060200191505060405180910390fd5b670de0b6b3a7640000600154023414610f93576040517f08c379a000000000000000000000000000000000000000000000000000000000815260040180806020018281038252600c8152602001807f57726f6e6720616d6f756e74000000000000000000000000000000000000000081525060200191505060405180910390fd5b60066000600560029054906101000a900461ffff1661ffff16815260200190815260200160002060040160405180602001604052803373ffffffffffffffffffffffffffffffffffffffff168152509080600181540180825580915050600190039060005260206000200160009091909190915060008201518160000160006101000a81548173ffffffffffffffffffffffffffffffffffffffff021916908373ffffffffffffffffffffffffffffffffffffffff16021790555050507f489c6e11db6d1d612cfaa8e112d52e69858fc8c8fc54c14026b479e099f26312600160066000600560029054906101000a900461ffff1661ffff16815260200190815260200160002060040180549050036040518082815260200191505060405180910390a1600160066000600560029054906101000a900461ffff1661ffff1681526020019081526020016000206004018054905003905090565b6110f5611400565b73ffffffffffffffffffffffffffffffffffffffff16611113610e46565b73ffffffffffffffffffffffffffffffffffffffff161461119c576040517f08c379a00000000000000000000000000000000000000000000000000000000081526004018080602001828103825260208152602001807f4f776e61626c653a2063616c6c6572206973206e6f7420746865206f776e657281525060200191505060405180910390fd5b60658161ffff16106111ad57600080fd5b80600560006101000a81548161ffff021916908361ffff16021790555050565b60015481565b60035481565b600060066000600560029054906101000a900461ffff1661ffff16815260200190815260200160002060040180549050905090565b611216611400565b73ffffffffffffffffffffffffffffffffffffffff16611234610e46565b73ffffffffffffffffffffffffffffffffffffffff16146112bd576040517f08c379a00000000000000000000000000000000000000000000000000000000081526004018080602001828103825260208152602001807f4f776e61626c653a2063616c6c6572206973206e6f7420746865206f776e657281525060200191505060405180910390fd5b600073ffffffffffffffffffffffffffffffffffffffff168173ffffffffffffffffffffffffffffffffffffffff161415611343576040517f08c379a00000000000000000000000000000000000000000000000000000000081526004018080602001828103825260268152602001806116656026913960400191505060405180910390fd5b8073ffffffffffffffffffffffffffffffffffffffff1660008054906101000a900473ffffffffffffffffffffffffffffffffffffffff1673ffffffffffffffffffffffffffffffffffffffff167f8be0079c531659141344cd1fd0a4f28419497f9722a3daafe3b4186f6b6457e060405160405180910390a3806000806101000a81548173ffffffffffffffffffffffffffffffffffffffff021916908373ffffffffffffffffffffffffffffffffffffffff16021790555050565b600033905090565b611410610c3d565b15611483576040517f08c379a00000000000000000000000000000000000000000000000000000000081526004018080602001828103825260108152602001807f5061757361626c653a207061757365640000000000000000000000000000000081525060200191505060405180910390fd5b6001600060146101000a81548160ff0219169083151502179055507f62e78cea01bee320cd4e420270b5ea74000d11b0c9f74754ebdbfc544b05a2586114c7611400565b604051808273ffffffffffffffffffffffffffffffffffffffff16815260200191505060405180910390a1565b600080600143034060001c9050600060066000600560029054906101000a900461ffff1661ffff168152602001908152602001600020600001544060001c90506000818318905060066000600560029054906101000a900461ffff1661ffff16815260200190815260200160002060040180549050818161157157fe5b06935050505090565b611582610c3d565b6115f4576040517f08c379a00000000000000000000000000000000000000000000000000000000081526004018080602001828103825260148152602001807f5061757361626c653a206e6f742070617573656400000000000000000000000081525060200191505060405180910390fd5b60008060146101000a81548160ff0219169083151502179055507f5db9ee0a495bf2e6ff9c91a7834c1ba4fdd244a5e8aa4e537bd38aeae4b073aa611637611400565b604051808273ffffffffffffffffffffffffffffffffffffffff16815260200191505060405180910390a156fe4f776e61626c653a206e6577206f776e657220697320746865207a65726f2061646472657373a2646970667358221220edd3db695b2c65f75ba2ef83e82095c3e7077e4dbdfba0a824f05d789360d7de64736f6c63430007060033",
  "immutableReferences": {},
  "source": "pragma solidity >=0.6.0 <0.8.0;\n\nimport \"@openzeppelin/contracts/access/Ownable.sol\";\nimport '@openzeppelin/contracts/utils/Pausable.sol';\n\ncontract Lotto is Ownable , Pausable  {\n\n  struct Lottery{\n    uint startBlock;\n    uint endBlock;\n    bytes32 blockHash;\n    address winner;\n    Participant[] participants;\n  }\n  struct Participant {\n    address addr;\n  }\n\n  uint256 public amount;\n  address public ownerAddress;\n  uint256 public totalPlayedAmount;\n  uint256 public totalOwnerAmount;\n  uint16 public ownerRatio;\n  uint constant WAIT_TIME = 38117;\n  uint16 public currentLottery;\n\n  mapping(uint => Lottery) public lotteries;\n\n  event LotteryRunFinished(address winner, uint256 ownerAmount, uint256 jackpot);\n  event ApplicationDone(uint applicationNumber);\n\n\n  constructor(uint256 _amount) public {\n    if (_amount == 0){\n      amount = 0.001 ether; //approx 1 USD\n    }else{\n      amount = _amount;\n    }\n    _pause();\n    initialise();\n    _unpause();\n    ownerAddress = msg.sender;\n    ownerRatio = 1;\n  }\n\nfunction play() public payable whenNotPaused returns (uint256) {\n  require(msg.value == amount * 10**18, 'Wrong amount');\n\n  lotteries[currentLottery].participants.push(Participant(msg.sender));\n  ApplicationDone(lotteries[currentLottery].participants.length - 1);\n  return lotteries[currentLottery].participants.length - 1;\n}\n\nfunction getCurrentCount() public view returns (uint256) {\n  return lotteries[currentLottery].participants.length;\n}\n\nfunction getCurrentLottery() public view returns(uint endBlock, uint startBlock, bytes32 blockHash, address winner, uint participants) {\n  Lottery storage lottery = lotteries[currentLottery];\n  return (lottery.endBlock, lottery.startBlock, lottery.blockHash, lottery.winner, lottery.participants.length);\n}\n\nfunction initialise() public whenPaused onlyOwner {\n   require(address(this).balance == 0);\n   currentLottery++;\n   lotteries[currentLottery].startBlock = block.number;\n   lotteries[currentLottery].blockHash = blockhash(lotteries[currentLottery].startBlock);\n\n   lotteries[currentLottery].endBlock = block.number + WAIT_TIME;\n }\n\n  function setOwnerRatio(uint16 newRatio) public onlyOwner {\n    require(newRatio < 101);\n    ownerRatio = newRatio;\n  }\n\n  function setOwnerAddress(address _ownerAddress) public onlyOwner {\n    require(_ownerAddress != address(0));\n    ownerAddress = _ownerAddress;\n  }\n\n  function runLottery() public onlyOwner returns (uint256, address) {\n    require(lotteries[currentLottery].participants.length >= 2);\n\n    _pause();\n\n    // send money to an affiliate address to cover the costs.\n    uint256 ownerAmount = (address(this).balance * ownerRatio) / 100;\n    address payable payableOwnerAddress = payable(ownerAddress);\n    payableOwnerAddress.transfer(ownerAmount);\n    totalOwnerAmount += ownerAmount;\n\n    // random winner.\n    uint256 randomValue = random();\n    address winner = lotteries[currentLottery].participants[randomValue].addr;\n    address payable winnerPayable = payable(winner);\n\n    // send the rest of the funds to the winner if anything is left.\n    uint256 winningPrice = address(this).balance;\n    if (winningPrice > 0) {\n      winnerPayable.transfer(winningPrice);\n    }\n\n    lotteries[currentLottery].winner = winner;\n    totalPlayedAmount += winningPrice;\n\n    // initialise a new one.\n    initialise();\n    _unpause();\n    LotteryRunFinished(winner, ownerAmount, winningPrice);\n    return (randomValue, winner);\n  }\n\n  // Helper functions\n\n  function random() internal view returns(uint256) {\n    // I know, I know. I should have use a proper off the chain random generator.\n    // Why not implement oraclize and send a pull request?\n    uint256 r1 = uint256(blockhash(block.number-1));\n    uint256 r2 = uint256(blockhash(lotteries[currentLottery].startBlock));\n\n    uint256 val;\n\n    assembly {\n      val := xor(r1, r2)\n    }\n    return val % lotteries[currentLottery].participants.length;\n  }\n}\n",
  "sourcePath": "/Users/hyferion/Projects/dLotto/contracts/Lotto.sol",
  "compiler": {
    "name": "solc",
    "version": "0.7.6+commit.7338295f.Emscripten.clang"
  },
  "schemaVersion": "3.3.4",
  "updatedAt": "2021-03-22T00:32:34.107Z",
  "networkType": "ethereum",
  "devdoc": {
    "kind": "dev",
    "methods": {
      "owner()": {
        "details": "Returns the address of the current owner."
      },
      "paused()": {
        "details": "Returns true if the contract is paused, and false otherwise."
      },
      "renounceOwnership()": {
        "details": "Leaves the contract without owner. It will not be possible to call `onlyOwner` functions anymore. Can only be called by the current owner. NOTE: Renouncing ownership will leave the contract without an owner, thereby removing any functionality that is only available to the owner."
      },
      "transferOwnership(address)": {
        "details": "Transfers ownership of the contract to a new account (`newOwner`). Can only be called by the current owner."
      }
    },
    "version": 1
  },
  "userdoc": {
    "kind": "user",
    "methods": {},
    "version": 1
  }
}